{
  "contractName": "Election",
  "abi": [
    {
      "constant": true,
      "inputs": [],
      "name": "indexCount",
      "outputs": [
        {
          "name": "",
          "type": "uint256"
        }
      ],
      "payable": false,
      "stateMutability": "view",
      "type": "function",
      "signature": "0x19a0bc4a"
    },
    {
      "constant": true,
      "inputs": [],
      "name": "candidatesCount2",
      "outputs": [
        {
          "name": "",
          "type": "uint256"
        }
      ],
      "payable": false,
      "stateMutability": "view",
      "type": "function",
      "signature": "0x2b9a71b6"
    },
    {
      "constant": true,
      "inputs": [],
      "name": "candidatesCount",
      "outputs": [
        {
          "name": "",
          "type": "uint256"
        }
      ],
      "payable": false,
      "stateMutability": "view",
      "type": "function",
      "signature": "0x2d35a8a2"
    },
    {
      "constant": true,
      "inputs": [
        {
          "name": "",
          "type": "uint256"
        }
      ],
      "name": "candidates",
      "outputs": [
        {
          "name": "id",
          "type": "uint256"
        },
        {
          "name": "name",
          "type": "string"
        },
        {
          "name": "voteCount",
          "type": "uint256"
        },
        {
          "name": "wardNum",
          "type": "uint256"
        }
      ],
      "payable": false,
      "stateMutability": "view",
      "type": "function",
      "signature": "0x3477ee2e"
    },
    {
      "constant": true,
      "inputs": [
        {
          "name": "",
          "type": "address"
        }
      ],
      "name": "voters",
      "outputs": [
        {
          "name": "",
          "type": "bool"
        }
      ],
      "payable": false,
      "stateMutability": "view",
      "type": "function",
      "signature": "0xa3ec138d"
    },
    {
      "constant": true,
      "inputs": [
        {
          "name": "",
          "type": "uint256"
        }
      ],
      "name": "voter",
      "outputs": [
        {
          "name": "name",
          "type": "string"
        },
        {
          "name": "loc",
          "type": "uint256"
        },
        {
          "name": "addr",
          "type": "string"
        }
      ],
      "payable": false,
      "stateMutability": "view",
      "type": "function",
      "signature": "0xab8ed1ba"
    },
    {
      "constant": true,
      "inputs": [
        {
          "name": "",
          "type": "uint256"
        }
      ],
      "name": "candidates2",
      "outputs": [
        {
          "name": "",
          "type": "uint256"
        }
      ],
      "payable": false,
      "stateMutability": "view",
      "type": "function",
      "signature": "0xb7942162"
    },
    {
      "inputs": [],
      "payable": false,
      "stateMutability": "nonpayable",
      "type": "constructor",
      "signature": "constructor"
    },
    {
      "anonymous": false,
      "inputs": [
        {
          "indexed": true,
          "name": "_candidateId",
          "type": "uint256"
        }
      ],
      "name": "votedEvent",
      "type": "event",
      "signature": "0xfff3c900d938d21d0990d786e819f29b8d05c1ef587b462b939609625b684b16"
    },
    {
      "constant": true,
      "inputs": [],
      "name": "add",
      "outputs": [
        {
          "name": "",
          "type": "string"
        }
      ],
      "payable": false,
      "stateMutability": "pure",
      "type": "function",
      "signature": "0x4f2be91f"
    },
    {
      "constant": false,
      "inputs": [
        {
          "name": "_name",
          "type": "string"
        },
        {
          "name": "_ward",
          "type": "uint256"
        }
      ],
      "name": "addCandidates",
      "outputs": [],
      "payable": false,
      "stateMutability": "nonpayable",
      "type": "function",
      "signature": "0x9fedb89a"
    },
    {
      "constant": true,
      "inputs": [
        {
          "name": "addr",
          "type": "string"
        }
      ],
      "name": "voterClick",
      "outputs": [
        {
          "name": "",
          "type": "string"
        }
      ],
      "payable": false,
      "stateMutability": "view",
      "type": "function",
      "signature": "0xff969ef4"
    },
    {
      "constant": true,
      "inputs": [
        {
          "name": "a",
          "type": "bool"
        }
      ],
      "name": "castVote",
      "outputs": [
        {
          "name": "",
          "type": "string"
        }
      ],
      "payable": false,
      "stateMutability": "view",
      "type": "function",
      "signature": "0x7ace48e7"
    },
    {
      "constant": false,
      "inputs": [
        {
          "name": "_ward",
          "type": "uint256"
        }
      ],
      "name": "addVoter2",
      "outputs": [],
      "payable": false,
      "stateMutability": "nonpayable",
      "type": "function",
      "signature": "0x014029ae"
    },
    {
      "constant": false,
      "inputs": [
        {
          "name": "_name",
          "type": "string"
        },
        {
          "name": "_ward",
          "type": "uint256"
        },
        {
          "name": "voterAddr",
          "type": "string"
        }
      ],
      "name": "addVoter",
      "outputs": [],
      "payable": false,
      "stateMutability": "nonpayable",
      "type": "function",
      "signature": "0xd152a1b5"
    },
    {
      "constant": false,
      "inputs": [
        {
          "name": "_candidateId",
          "type": "uint256"
        }
      ],
      "name": "vote",
      "outputs": [],
      "payable": false,
      "stateMutability": "nonpayable",
      "type": "function",
      "signature": "0x0121b93f"
    }
  ],
  "bytecode": "0x608060405260016007553480156200001657600080fd5b50620000686040805190810160405280600b81526020017f43616e64696461746520310000000000000000000000000000000000000000008152506016620000bf640100000000026401000000009004565b620000b96040805190810160405280600b81526020017f43616e64696461746520320000000000000000000000000000000000000000008152506021620000bf640100000000026401000000009004565b620001fe565b60056000815480929190600101919050555060806040519081016040528060055481526020018381526020016000815260200182815250600160006005548152602001908152602001600020600082015181600001556020820151816001019080519060200190620001339291906200014f565b5060408201518160020155606082015181600301559050505050565b828054600181600116156101000203166002900490600052602060002090601f016020900481019282601f106200019257805160ff1916838001178555620001c3565b82800160010185558215620001c3579182015b82811115620001c2578251825591602001919060010190620001a5565b5b509050620001d29190620001d6565b5090565b620001fb91905b80821115620001f7576000816000905550600101620001dd565b5090565b90565b61126f806200020e6000396000f3fe6080604052600436106100d0576000357c0100000000000000000000000000000000000000000000000000000000900463ffffffff1680630121b93f146100d5578063014029ae1461011057806319a0bc4a1461014b5780632b9a71b6146101765780632d35a8a2146101a15780633477ee2e146101cc5780634f2be91f146102955780637ace48e7146103255780639fedb89a146103db578063a3ec138d146104ad578063ab8ed1ba14610516578063b79421621461063d578063d152a1b51461068c578063ff969ef4146107f5575b600080fd5b3480156100e157600080fd5b5061010e600480360360208110156100f857600080fd5b8101908080359060200190929190505050610936565b005b34801561011c57600080fd5b506101496004803603602081101561013357600080fd5b8101908080359060200190929190505050610a58565b005b34801561015757600080fd5b50610160610a76565b6040518082815260200191505060405180910390f35b34801561018257600080fd5b5061018b610a7c565b6040518082815260200191505060405180910390f35b3480156101ad57600080fd5b506101b6610a82565b6040518082815260200191505060405180910390f35b3480156101d857600080fd5b50610205600480360360208110156101ef57600080fd5b8101908080359060200190929190505050610a88565b6040518085815260200180602001848152602001838152602001828103825285818151815260200191508051906020019080838360005b8381101561025757808201518184015260208101905061023c565b50505050905090810190601f1680156102845780820380516001836020036101000a031916815260200191505b509550505050505060405180910390f35b3480156102a157600080fd5b506102aa610b50565b6040518080602001828103825283818151815260200191508051906020019080838360005b838110156102ea5780820151818401526020810190506102cf565b50505050905090810190601f1680156103175780820380516001836020036101000a031916815260200191505b509250505060405180910390f35b34801561033157600080fd5b506103606004803603602081101561034857600080fd5b81019080803515159060200190929190505050610bc1565b6040518080602001828103825283818151815260200191508051906020019080838360005b838110156103a0578082015181840152602081019050610385565b50505050905090810190601f1680156103cd5780820380516001836020036101000a031916815260200191505b509250505060405180910390f35b3480156103e757600080fd5b506104ab600480360360408110156103fe57600080fd5b810190808035906020019064010000000081111561041b57600080fd5b82018360208201111561042d57600080fd5b8035906020019184600183028401116401000000008311171561044f57600080fd5b91908080601f016020809104026020016040519081016040528093929190818152602001838380828437600081840152601f19601f82011690508083019250505050505050919291929080359060200190929190505050610c92565b005b3480156104b957600080fd5b506104fc600480360360208110156104d057600080fd5b81019080803573ffffffffffffffffffffffffffffffffffffffff169060200190929190505050610d20565b604051808215151515815260200191505060405180910390f35b34801561052257600080fd5b5061054f6004803603602081101561053957600080fd5b8101908080359060200190929190505050610d40565b604051808060200184815260200180602001838103835286818151815260200191508051906020019080838360005b8381101561059957808201518184015260208101905061057e565b50505050905090810190601f1680156105c65780820380516001836020036101000a031916815260200191505b50838103825284818151815260200191508051906020019080838360005b838110156105ff5780820151818401526020810190506105e4565b50505050905090810190601f16801561062c5780820380516001836020036101000a031916815260200191505b509550505050505060405180910390f35b34801561064957600080fd5b506106766004803603602081101561066057600080fd5b8101908080359060200190929190505050610e9a565b6040518082815260200191505060405180910390f35b34801561069857600080fd5b506107f3600480360360608110156106af57600080fd5b81019080803590602001906401000000008111156106cc57600080fd5b8201836020820111156106de57600080fd5b8035906020019184600183028401116401000000008311171561070057600080fd5b91908080601f016020809104026020016040519081016040528093929190818152602001838380828437600081840152601f19601f820116905080830192505050505050509192919290803590602001909291908035906020019064010000000081111561076d57600080fd5b82018360208201111561077f57600080fd5b803590602001918460018302840111640100000000831117156107a157600080fd5b91908080601f016020809104026020016040519081016040528093929190818152602001838380828437600081840152601f19601f820116905080830192505050505050509192919290505050610eb2565b005b34801561080157600080fd5b506108bb6004803603602081101561081857600080fd5b810190808035906020019064010000000081111561083557600080fd5b82018360208201111561084757600080fd5b8035906020019184600183028401116401000000008311171561086957600080fd5b91908080601f016020809104026020016040519081016040528093929190818152602001838380828437600081840152601f19601f820116905080830192505050505050509192919290505050610fe8565b6040518080602001828103825283818151815260200191508051906020019080838360005b838110156108fb5780820151818401526020810190506108e0565b50505050905090810190601f1680156109285780820380516001836020036101000a031916815260200191505b509250505060405180910390f35b6000803373ffffffffffffffffffffffffffffffffffffffff1673ffffffffffffffffffffffffffffffffffffffff16815260200190815260200160002060009054906101000a900460ff1615151561098e57600080fd5b6000811180156109a057506005548111155b15156109ab57600080fd5b60016000803373ffffffffffffffffffffffffffffffffffffffff1673ffffffffffffffffffffffffffffffffffffffff16815260200190815260200160002060006101000a81548160ff0219169083151502179055506001600082815260200190815260200160002060020160008154809291906001019190505550807ffff3c900d938d21d0990d786e819f29b8d05c1ef587b462b939609625b684b1660405160405180910390a250565b80600202600260008381526020019081526020016000208190555050565b60075481565b60065481565b60055481565b6001602052806000526040600020600091509050806000015490806001018054600181600116156101000203166002900480601f016020809104026020016040519081016040528092919081815260200182805460018160011615610100020316600290048015610b3a5780601f10610b0f57610100808354040283529160200191610b3a565b820191906000526020600020905b815481529060010190602001808311610b1d57829003601f168201915b5050505050908060020154908060030154905084565b6060600115610bbd57606060405190810160405280602781526020017f687474703a2f2f6c6f63616c686f73743a333030302f61646463616e6469646181526020017f74652e68746d6c000000000000000000000000000000000000000000000000008152509050610bbe565b5b90565b60608115610c2d57606060405190810160405280602381526020017f687474703a2f2f6c6f63616c686f73743a333030302f63617374766f74652e6881526020017f746d6c00000000000000000000000000000000000000000000000000000000008152509050610c8d565b606060405190810160405280602381526020017f687474703a2f2f6c6f63616c686f73743a333030302f63617374766f74652e6881526020017f746d6c000000000000000000000000000000000000000000000000000000000081525090505b919050565b60056000815480929190600101919050555060806040519081016040528060055481526020018381526020016000815260200182815250600160006005548152602001908152602001600020600082015181600001556020820151816001019080519060200190610d0492919061111e565b5060408201518160020155606082015181600301559050505050565b60006020528060005260406000206000915054906101000a900460ff1681565b6003602052806000526040600020600091509050806000018054600181600116156101000203166002900480601f016020809104026020016040519081016040528092919081815260200182805460018160011615610100020316600290048015610dec5780601f10610dc157610100808354040283529160200191610dec565b820191906000526020600020905b815481529060010190602001808311610dcf57829003601f168201915b505050505090806001015490806002018054600181600116156101000203166002900480601f016020809104026020016040519081016040528092919081815260200182805460018160011615610100020316600290048015610e905780601f10610e6557610100808354040283529160200191610e90565b820191906000526020600020905b815481529060010190602001808311610e7357829003601f168201915b5050505050905083565b60026020528060005260406000206000915090505481565b600160075401600781905550826003600060075481526020019081526020016000206000019080519060200190610eea92919061119e565b508160036000600754815260200190815260200160002060010181905550806003600060075481526020019081526020016000206002019080519060200190610f3492919061119e565b506001600460003373ffffffffffffffffffffffffffffffffffffffff1673ffffffffffffffffffffffffffffffffffffffff16815260200190815260200160002060006101000a81548160ff021916908315150217905550610fe2600460003373ffffffffffffffffffffffffffffffffffffffff1673ffffffffffffffffffffffffffffffffffffffff16815260200190815260200160002060009054906101000a900460ff16610bc1565b50505050565b60606000600190506007548111151561111757600460003373ffffffffffffffffffffffffffffffffffffffff1673ffffffffffffffffffffffffffffffffffffffff16815260200190815260200160002060009054906101000a900460ff16156110b257606060405190810160405280602381526020017f687474703a2f2f6c6f63616c686f73743a333030302f63617374766f74652e6881526020017f746d6c0000000000000000000000000000000000000000000000000000000000815250915050611119565b606060405190810160405280602381526020017f687474703a2f2f6c6f63616c686f73743a333030302f72656769737465722e6881526020017f746d6c0000000000000000000000000000000000000000000000000000000000815250915050611119565b505b919050565b828054600181600116156101000203166002900490600052602060002090601f016020900481019282601f1061115f57805160ff191683800117855561118d565b8280016001018555821561118d579182015b8281111561118c578251825591602001919060010190611171565b5b50905061119a919061121e565b5090565b828054600181600116156101000203166002900490600052602060002090601f016020900481019282601f106111df57805160ff191683800117855561120d565b8280016001018555821561120d579182015b8281111561120c5782518255916020019190600101906111f1565b5b50905061121a919061121e565b5090565b61124091905b8082111561123c576000816000905550600101611224565b5090565b9056fea165627a7a723058201a800df2a1b0879371b62ecda54a1d1abcc0500e5a8509b4caf59f0e4df20ace0029",
  "source": "// SPDX-License-Identifier: GPL-3.0-or-later\r\npragma solidity >=0.4.2;\r\n\r\ncontract Election {\r\n    // Model a Candidate\r\n    struct Candidate {\r\n        uint256 id;\r\n        string name;\r\n        uint256 voteCount;\r\n        uint256 wardNum;\r\n    }\r\n\r\n    struct Voter {\r\n        string name;\r\n        uint256 loc;\r\n        string addr;\r\n    }\r\n\r\n    // Store accounts that have voted\r\n    mapping(address => bool) public voters;\r\n    // Store Candidates\r\n    // Fetch Candidate\r\n    mapping(uint256 => Candidate) public candidates;\r\n\r\n    mapping(uint256 => uint256) public candidates2;\r\n    //Fetch Voter\r\n    mapping(uint256 => Voter) public voter;\r\n    //Check voter already exist\r\n    mapping(address => bool) voterExists;\r\n    // Store Candidates Count\r\n    uint256 public candidatesCount;\r\n\r\n    uint256 public candidatesCount2;\r\n\r\n    uint256 public indexCount=1;\r\n\r\n    // voted event\r\n    event votedEvent(uint256 indexed _candidateId);\r\n\r\n    constructor() public {\r\n        addCandidates(\"Candidate 1\", 22);\r\n        addCandidates(\"Candidate 2\", 33);\r\n    }\r\n\r\n    modifier onlyVoter() {\r\n        require(voterExists[msg.sender]);\r\n        _;\r\n    }\r\n\r\n    function add() public pure returns (string memory) {\r\n        if (true) {\r\n            return (\"http://localhost:3000/addcandidate.html\");\r\n        }\r\n    }\r\n\r\n    function addCandidates(string memory _name, uint256 _ward) public {\r\n        candidatesCount++;\r\n        candidates[candidatesCount] = Candidate(candidatesCount,_name,0,_ward);\r\n    }\r\n\r\n    function voterClick(string memory addr) public view returns (string memory) {\r\n        for (uint i = 1; i <= indexCount; i++) {\r\n            if (voterExists[msg.sender]) {\r\n                return (\"http://localhost:3000/castvote.html\");\r\n            } else {\r\n                return (\"http://localhost:3000/register.html\");\r\n            }\r\n        }\r\n    }\r\n\r\n     function castVote(bool a) public view returns (string memory){\r\n         if(a){\r\n             return (\"http://localhost:3000/castvote.html\");\r\n         }\r\n         else{\r\n             return (\"http://localhost:3000/castvote.html\");\r\n         }\r\n     }\r\n\r\n function addVoter2(\r\n        uint256 _ward\r\n    )public{\r\n        candidates2[_ward]= 2*_ward;\r\n    }\r\n\r\n\r\n\r\n    function addVoter(\r\n        string memory _name,\r\n        uint256 _ward,\r\n        string memory voterAddr\r\n    )public{\r\n        indexCount = indexCount + 1;\r\n        voter[indexCount].name = _name;\r\n        voter[indexCount].loc = _ward;\r\n        voter[indexCount].addr = voterAddr;\r\n        voterExists[msg.sender] = true;\r\n        castVote(voterExists[msg.sender]);\r\n        // for (uint i = 1; i <= indexCount; i++) {\r\n        //     if (voterExists[msg.sender]) {\r\n        //         return (\"http://localhost:3000/castvote.html\");\r\n        //     } else {\r\n        //         return (\"http://localhost:3000/register.html\");\r\n        //     }\r\n        // }\r\n\r\n        // return (\"http://localhost:3000/castvote.html\");\r\n    }\r\n\r\n\r\n\r\n    function vote(uint256 _candidateId) public {\r\n        // require that they haven't voted before\r\n        require(!voters[msg.sender]);\r\n\r\n        // require a valid candidate\r\n        require(_candidateId > 0 && _candidateId <= candidatesCount);\r\n\r\n        // record that voter has voted\r\n        voters[msg.sender] = true;\r\n\r\n        // update candidate vote Count\r\n        candidates[_candidateId].voteCount++;\r\n\r\n        // trigger voted event\r\n        emit votedEvent(_candidateId);\r\n    }\r\n}\r\n",
  "sourcePath": "D:/VoteChain/contracts/Election.sol",
  "compiler": {
    "name": "solc",
    "version": "0.5.0+commit.1d4f565a.Emscripten.clang"
  },
  "schemaVersion": "3.0.1",
  "updatedAt": "2022-06-12T06:53:21.894Z",
  "devdoc": {
    "methods": {}
  },
  "userdoc": {
    "methods": {}
  }
}