{
  "contractName": "Election",
  "abi": [
    {
      "constant": true,
      "inputs": [],
      "name": "indexCount",
      "outputs": [
        {
          "name": "",
          "type": "uint256"
        }
      ],
      "payable": false,
      "stateMutability": "view",
      "type": "function",
      "signature": "0x19a0bc4a"
    },
    {
      "constant": true,
      "inputs": [],
      "name": "candidatesCount",
      "outputs": [
        {
          "name": "",
          "type": "uint256"
        }
      ],
      "payable": false,
      "stateMutability": "view",
      "type": "function",
      "signature": "0x2d35a8a2"
    },
    {
      "constant": true,
      "inputs": [
        {
          "name": "",
          "type": "uint256"
        }
      ],
      "name": "candidates",
      "outputs": [
        {
          "name": "id",
          "type": "uint256"
        },
        {
          "name": "name",
          "type": "string"
        },
        {
          "name": "voteCount",
          "type": "uint256"
        },
        {
          "name": "wardNum",
          "type": "uint256"
        }
      ],
      "payable": false,
      "stateMutability": "view",
      "type": "function",
      "signature": "0x3477ee2e"
    },
    {
      "constant": true,
      "inputs": [
        {
          "name": "",
          "type": "address"
        }
      ],
      "name": "voters",
      "outputs": [
        {
          "name": "",
          "type": "bool"
        }
      ],
      "payable": false,
      "stateMutability": "view",
      "type": "function",
      "signature": "0xa3ec138d"
    },
    {
      "constant": true,
      "inputs": [
        {
          "name": "",
          "type": "uint256"
        }
      ],
      "name": "voter",
      "outputs": [
        {
          "name": "name",
          "type": "string"
        },
        {
          "name": "loc",
          "type": "uint256"
        },
        {
          "name": "addr",
          "type": "string"
        }
      ],
      "payable": false,
      "stateMutability": "view",
      "type": "function",
      "signature": "0xab8ed1ba"
    },
    {
      "inputs": [],
      "payable": false,
      "stateMutability": "nonpayable",
      "type": "constructor",
      "signature": "constructor"
    },
    {
      "anonymous": false,
      "inputs": [
        {
          "indexed": true,
          "name": "_candidateId",
          "type": "uint256"
        }
      ],
      "name": "votedEvent",
      "type": "event",
      "signature": "0xfff3c900d938d21d0990d786e819f29b8d05c1ef587b462b939609625b684b16"
    },
    {
      "constant": true,
      "inputs": [],
      "name": "add",
      "outputs": [
        {
          "name": "",
          "type": "string"
        }
      ],
      "payable": false,
      "stateMutability": "pure",
      "type": "function",
      "signature": "0x4f2be91f"
    },
    {
      "constant": false,
      "inputs": [
        {
          "name": "_name",
          "type": "string"
        },
        {
          "name": "_ward",
          "type": "uint256"
        }
      ],
      "name": "addCandidates",
      "outputs": [],
      "payable": false,
      "stateMutability": "nonpayable",
      "type": "function",
      "signature": "0x9fedb89a"
    },
    {
      "constant": true,
      "inputs": [
        {
          "name": "addr",
          "type": "string"
        }
      ],
      "name": "voterClick",
      "outputs": [
        {
          "name": "",
          "type": "string"
        }
      ],
      "payable": false,
      "stateMutability": "view",
      "type": "function",
      "signature": "0xff969ef4"
    },
    {
      "constant": false,
      "inputs": [
        {
          "name": "_name",
          "type": "string"
        },
        {
          "name": "voterAddr",
          "type": "string"
        },
        {
          "name": "_ward",
          "type": "uint256"
        }
      ],
      "name": "addVoter",
      "outputs": [
        {
          "name": "",
          "type": "string"
        }
      ],
      "payable": false,
      "stateMutability": "nonpayable",
      "type": "function",
      "signature": "0x18e452ad"
    },
    {
      "constant": false,
      "inputs": [
        {
          "name": "_candidateId",
          "type": "uint256"
        }
      ],
      "name": "vote",
      "outputs": [],
      "payable": false,
      "stateMutability": "nonpayable",
      "type": "function",
      "signature": "0x0121b93f"
    }
  ],
  "bytecode": "0x608060405260016005553480156200001657600080fd5b50620000686040805190810160405280600b81526020017f43616e64696461746520310000000000000000000000000000000000000000008152506016620000bf640100000000026401000000009004565b620000b96040805190810160405280600b81526020017f43616e64696461746520320000000000000000000000000000000000000000008152506021620000bf640100000000026401000000009004565b620001fe565b60046000815480929190600101919050555060806040519081016040528060045481526020018381526020016000815260200182815250600160006004548152602001908152602001600020600082015181600001556020820151816001019080519060200190620001339291906200014f565b5060408201518160020155606082015181600301559050505050565b828054600181600116156101000203166002900490600052602060002090601f016020900481019282601f106200019257805160ff1916838001178555620001c3565b82800160010185558215620001c3579182015b82811115620001c2578251825591602001919060010190620001a5565b5b509050620001d29190620001d6565b5090565b620001fb91905b80821115620001f7576000816000905550600101620001dd565b5090565b90565b6110b0806200020e6000396000f3fe6080604052600436106100a4576000357c0100000000000000000000000000000000000000000000000000000000900463ffffffff1680630121b93f146100a957806318e452ad146100e457806319a0bc4a146102c65780632d35a8a2146102f15780633477ee2e1461031c5780634f2be91f146103e55780639fedb89a14610475578063a3ec138d14610547578063ab8ed1ba146105b0578063ff969ef4146106d7575b600080fd5b3480156100b557600080fd5b506100e2600480360360208110156100cc57600080fd5b8101908080359060200190929190505050610818565b005b3480156100f057600080fd5b5061024b6004803603606081101561010757600080fd5b810190808035906020019064010000000081111561012457600080fd5b82018360208201111561013657600080fd5b8035906020019184600183028401116401000000008311171561015857600080fd5b91908080601f016020809104026020016040519081016040528093929190818152602001838380828437600081840152601f19601f820116905080830192505050505050509192919290803590602001906401000000008111156101bb57600080fd5b8201836020820111156101cd57600080fd5b803590602001918460018302840111640100000000831117156101ef57600080fd5b91908080601f016020809104026020016040519081016040528093929190818152602001838380828437600081840152601f19601f8201169050808301925050505050505091929192908035906020019092919050505061093a565b6040518080602001828103825283818151815260200191508051906020019080838360005b8381101561028b578082015181840152602081019050610270565b50505050905090810190601f1680156102b85780820380516001836020036101000a031916815260200191505b509250505060405180910390f35b3480156102d257600080fd5b506102db610a25565b6040518082815260200191505060405180910390f35b3480156102fd57600080fd5b50610306610a2b565b6040518082815260200191505060405180910390f35b34801561032857600080fd5b506103556004803603602081101561033f57600080fd5b8101908080359060200190929190505050610a31565b6040518085815260200180602001848152602001838152602001828103825285818151815260200191508051906020019080838360005b838110156103a757808201518184015260208101905061038c565b50505050905090810190601f1680156103d45780820380516001836020036101000a031916815260200191505b509550505050505060405180910390f35b3480156103f157600080fd5b506103fa610af9565b6040518080602001828103825283818151815260200191508051906020019080838360005b8381101561043a57808201518184015260208101905061041f565b50505050905090810190601f1680156104675780820380516001836020036101000a031916815260200191505b509250505060405180910390f35b34801561048157600080fd5b506105456004803603604081101561049857600080fd5b81019080803590602001906401000000008111156104b557600080fd5b8201836020820111156104c757600080fd5b803590602001918460018302840111640100000000831117156104e957600080fd5b91908080601f016020809104026020016040519081016040528093929190818152602001838380828437600081840152601f19601f82011690508083019250505050505050919291929080359060200190929190505050610b6a565b005b34801561055357600080fd5b506105966004803603602081101561056a57600080fd5b81019080803573ffffffffffffffffffffffffffffffffffffffff169060200190929190505050610bf8565b604051808215151515815260200191505060405180910390f35b3480156105bc57600080fd5b506105e9600480360360208110156105d357600080fd5b8101908080359060200190929190505050610c18565b604051808060200184815260200180602001838103835286818151815260200191508051906020019080838360005b83811015610633578082015181840152602081019050610618565b50505050905090810190601f1680156106605780820380516001836020036101000a031916815260200191505b50838103825284818151815260200191508051906020019080838360005b8381101561069957808201518184015260208101905061067e565b50505050905090810190601f1680156106c65780820380516001836020036101000a031916815260200191505b509550505050505060405180910390f35b3480156106e357600080fd5b5061079d600480360360208110156106fa57600080fd5b810190808035906020019064010000000081111561071757600080fd5b82018360208201111561072957600080fd5b8035906020019184600183028401116401000000008311171561074b57600080fd5b91908080601f016020809104026020016040519081016040528093929190818152602001838380828437600081840152601f19601f820116905080830192505050505050509192919290505050610d72565b6040518080602001828103825283818151815260200191508051906020019080838360005b838110156107dd5780820151818401526020810190506107c2565b50505050905090810190601f16801561080a5780820380516001836020036101000a031916815260200191505b509250505060405180910390f35b6000803373ffffffffffffffffffffffffffffffffffffffff1673ffffffffffffffffffffffffffffffffffffffff16815260200190815260200160002060009054906101000a900460ff1615151561087057600080fd5b60008111801561088257506004548111155b151561088d57600080fd5b60016000803373ffffffffffffffffffffffffffffffffffffffff1673ffffffffffffffffffffffffffffffffffffffff16815260200190815260200160002060006101000a81548160ff0219169083151502179055506001600082815260200190815260200160002060020160008154809291906001019190505550807ffff3c900d938d21d0990d786e819f29b8d05c1ef587b462b939609625b684b1660405160405180910390a250565b6060600160055401600581905550836002600060055481526020019081526020016000206000019080519060200190610974929190610f5f565b508260026000600554815260200190815260200160002060020190805190602001906109a1929190610f5f565b508160026000600554815260200190815260200160002060010181905550606060405190810160405280602381526020017f687474703a2f2f6c6f63616c686f73743a333030302f63617374766f74652e6881526020017f746d6c000000000000000000000000000000000000000000000000000000000081525090509392505050565b60055481565b60045481565b6001602052806000526040600020600091509050806000015490806001018054600181600116156101000203166002900480601f016020809104026020016040519081016040528092919081815260200182805460018160011615610100020316600290048015610ae35780601f10610ab857610100808354040283529160200191610ae3565b820191906000526020600020905b815481529060010190602001808311610ac657829003601f168201915b5050505050908060020154908060030154905084565b6060600115610b6657606060405190810160405280602781526020017f687474703a2f2f6c6f63616c686f73743a333030302f61646463616e6469646181526020017f74652e68746d6c000000000000000000000000000000000000000000000000008152509050610b67565b5b90565b60046000815480929190600101919050555060806040519081016040528060045481526020018381526020016000815260200182815250600160006004548152602001908152602001600020600082015181600001556020820151816001019080519060200190610bdc929190610fdf565b5060408201518160020155606082015181600301559050505050565b60006020528060005260406000206000915054906101000a900460ff1681565b6002602052806000526040600020600091509050806000018054600181600116156101000203166002900480601f016020809104026020016040519081016040528092919081815260200182805460018160011615610100020316600290048015610cc45780601f10610c9957610100808354040283529160200191610cc4565b820191906000526020600020905b815481529060010190602001808311610ca757829003601f168201915b505050505090806001015490806002018054600181600116156101000203166002900480601f016020809104026020016040519081016040528092919081815260200182805460018160011615610100020316600290048015610d685780601f10610d3d57610100808354040283529160200191610d68565b820191906000526020600020905b815481529060010190602001808311610d4b57829003601f168201915b5050505050905083565b606060006001905060055481111515610f5857826040516020018082805190602001908083835b602083101515610dbe5780518252602082019150602081019050602083039250610d99565b6001836020036101000a03801982511681845116808217855250505050505090500191505060405160208183030381529060405280519060200120600260008381526020019081526020016000206002016040516020018082805460018160011615610100020316600290048015610e6d5780601f10610e4b576101008083540402835291820191610e6d565b820191906000526020600020905b815481529060010190602001808311610e59575b5050915050604051602081830303815290604052805190602001201415610ef357606060405190810160405280602381526020017f687474703a2f2f6c6f63616c686f73743a333030302f63617374766f74652e6881526020017f746d6c0000000000000000000000000000000000000000000000000000000000815250915050610f5a565b606060405190810160405280602381526020017f687474703a2f2f6c6f63616c686f73743a333030302f72656769737465722e6881526020017f746d6c0000000000000000000000000000000000000000000000000000000000815250915050610f5a565b505b919050565b828054600181600116156101000203166002900490600052602060002090601f016020900481019282601f10610fa057805160ff1916838001178555610fce565b82800160010185558215610fce579182015b82811115610fcd578251825591602001919060010190610fb2565b5b509050610fdb919061105f565b5090565b828054600181600116156101000203166002900490600052602060002090601f016020900481019282601f1061102057805160ff191683800117855561104e565b8280016001018555821561104e579182015b8281111561104d578251825591602001919060010190611032565b5b50905061105b919061105f565b5090565b61108191905b8082111561107d576000816000905550600101611065565b5090565b9056fea165627a7a7230582016c0ea083b30e67777f2f283b57bf54a3cc7cbc1ad211f42397af3ef8c6748d70029",
  "source": "// SPDX-License-Identifier: GPL-3.0-or-later\r\npragma solidity >=0.4.2;\r\n\r\ncontract Election {\r\n    // Model a Candidate\r\n    struct Candidate {\r\n        uint256 id;\r\n        string name;\r\n        uint256 voteCount;\r\n        uint256 wardNum;\r\n    }\r\n\r\n    struct Voter {\r\n        string name;\r\n        uint256 loc;\r\n        string addr;\r\n    }\r\n\r\n    // Store accounts that have voted\r\n    mapping(address => bool) public voters;\r\n    // Store Candidates\r\n    // Fetch Candidate\r\n    mapping(uint256 => Candidate) public candidates;\r\n    //Fetch Voter\r\n    mapping(uint256 => Voter) public voter;\r\n    //Check voter already exist\r\n    mapping(address => bool) voterExists;\r\n    // Store Candidates Count\r\n    uint256 public candidatesCount;\r\n\r\n    uint256 public indexCount=1;\r\n\r\n    // voted event\r\n    event votedEvent(uint256 indexed _candidateId);\r\n\r\n    constructor() public {\r\n        addCandidates(\"Candidate 1\", 22);\r\n        addCandidates(\"Candidate 2\", 33);\r\n    }\r\n\r\n    modifier onlyVoter() {\r\n        require(voterExists[msg.sender]);\r\n        _;\r\n    }\r\n\r\n    function add() public pure returns (string memory) {\r\n        if (true) {\r\n            return (\"http://localhost:3000/addcandidate.html\");\r\n        }\r\n    }\r\n\r\n    function addCandidates(string memory _name, uint256 _ward) public {\r\n        candidatesCount++;\r\n        candidates[candidatesCount] = Candidate(\r\n            candidatesCount,\r\n            _name,\r\n            0,\r\n            _ward\r\n        );\r\n    }\r\n\r\n    function voterClick(string memory addr) public view returns (string memory) {\r\n        for (uint i = 1; i <= indexCount; i++) {\r\n            if (keccak256(abi.encodePacked(voter[i].addr)) == keccak256(abi.encodePacked(addr))) {\r\n                return (\"http://localhost:3000/castvote.html\");\r\n            } else {\r\n                return (\"http://localhost:3000/register.html\");\r\n            }\r\n        }\r\n    }\r\n\r\n    function addVoter(\r\n        string memory _name,\r\n        string memory voterAddr,\r\n        uint256 _ward\r\n    ) public returns (string memory) {\r\n        indexCount = indexCount + 1;\r\n        voter[indexCount].name = _name;\r\n        voter[indexCount].addr = voterAddr;\r\n        voter[indexCount].loc = _ward;\r\n        // voterExists[msg.sender] = true;\r\n        // for (uint i = 1; i <= indexCount; i++) {\r\n        //     if (keccak256(abi.encodePacked(voter[i].addr)) == keccak256(abi.encodePacked(voterAddr))) {\r\n        //         return (\"http://localhost:3000/castvote.html\");\r\n        //     } else {\r\n        //         return (\"http://localhost:3000/register.html\");\r\n        //     }\r\n        // }\r\n\r\n        return (\"http://localhost:3000/castvote.html\");\r\n    }\r\n\r\n    function vote(uint256 _candidateId) public {\r\n        // require that they haven't voted before\r\n        require(!voters[msg.sender]);\r\n\r\n        // require a valid candidate\r\n        require(_candidateId > 0 && _candidateId <= candidatesCount);\r\n\r\n        // record that voter has voted\r\n        voters[msg.sender] = true;\r\n\r\n        // update candidate vote Count\r\n        candidates[_candidateId].voteCount++;\r\n\r\n        // trigger voted event\r\n        emit votedEvent(_candidateId);\r\n    }\r\n}\r\n",
  "sourcePath": "D:/VoteChain/contracts/Election.sol",
  "compiler": {
    "name": "solc",
    "version": "0.5.0+commit.1d4f565a.Emscripten.clang"
  },
  "schemaVersion": "3.0.1",
  "updatedAt": "2022-06-10T14:27:56.694Z",
  "devdoc": {
    "methods": {}
  },
  "userdoc": {
    "methods": {}
  }
}